:020000040000FA
:0400000036EF00F0E7
:020004000000FA
:0200080008D01E
:020018001CD0FA
:06001A00F2928A84000E40
:10002000066E01EE00F0F00ECF6EC80ECE6E9E9002
:10003000CD809EA0FED7C282C2A2FED7C4CF11F04F
:10004000810E112611C0EFFFE92A072EECD78A8610
:100050001100D8CF81F0E8CF80F0E0CF82F082C0ED
:10006000E0FF80C0E8FF81C0D8FF100059EC00F02D
:1000700000006BEC00F08AA6FED7000E076E01EEC2
:1000800000F013EE00F008C009F00BC00CF00AC03D
:100090000BF00A6AEFCF08F084EC00F00AC0E7FF2B
:1000A000E12AE92A072EEFD78A8881B2FED736EFF8
:1000B00000F0066A076A086A0D6A096A0E6A0A6A27
:1000C0000B6A0F6A0C6A106A016A026A036A046AA0
:1000D000056A116A12006A0ED36E800E9B6E140EB2
:1000E000C06E0E0EC16E010EC26E810ECD6EF28814
:1000F000F19CD08EF28E928093809382939493960B
:100100009398939A8A6A120008C003F0BFEC00F03B
:1001100003C00DF009C002F0B1EC00F002C00EF017
:100120000BC003F0BFEC00F003C00FF00CC004F0F4
:10013000D1EC00F004C010F00D500A260E6C0E50E9
:100140000A260F500A26106C10500A26120001AE23
:1001500001D003D00132019E03D00132018E00D0C4
:10016000120002AE01D005D00232029E0232029E7F
:1001700005D00232028E0232028E00D0120003AE8F
:1001800001D007D00332039E0332039E0332039E45
:1001900007D00332038E0332038E0332038E00D066
:1001A000120004C002F0B1EC00F002C005F0056CD2
:0601B000055004261200B8
:020000040030CA
:0100010008F6
:010003001EDE
:010005008179
:0200000400F00A
:1000000054657374204461746100010203040500A7
:00000001FF
